:020000040800F2
:10000000080400200101000825010008270100085C
:10001000290100082B0100082D0100080000000044
:100020000000000000000000000000002F01000898
:10003000310100080000000033010008350100080C
:1000400037010008370100083701000837010008B0
:1000500037010008370100083701000837010008A0
:100060003701000837010008370100083701000890
:100070003701000837010008370100083701000880
:100080003701000837010008370100083701000870
:100090003701000837010008370100083701000860
:1000A0003701000837010008370100083701000850
:1000B0003701000837010008370100083701000840
:1000C0003701000837010008370100083701000830
:1000D0003701000837010008370100083701000820
:1000E000370100083701000837010008DFF80CD09D
:1000F00000F02CF800480047F9010008080400202F
:100100000D488047DFF83400016841F4E0210160C8
:10011000BFF34F8FDFF82800DFF8281001600A488E
:1001200000477047FEE7FEE7FEE7FEE7FEE7FEE773
:10013000FEE7FEE7FEE7FEE72301000824ED00E00E
:100140000CED00E00003FA05ED000008064C074D39
:1001500006E0E06840F0010394E807009847103497
:10016000AC42F6D3FFF7C6FF1402000834020008C1
:10017000F0B44FF000044FF000064FF00005134AB2
:1001800032F9142031F9167002FB085504F101040C
:1001900004FB00F606F03F06402CF0D12846FFE7AE
:1001A000F0BC704730B504460949FFF7E1FF00FB9A
:1001B00000F520460749FFF7DBFF00FB00554FEA3B
:1001C0001500FFE7BDE8304070470000340200082A
:1001D000B4020008C802000802E008C8121F08C1E3
:1001E000002AFAD170477047002001E001C1121FB8
:1001F000002AFBD17047000001200549086008462D
:100200000068FFF7CFFF0249086000BFFEE700006B
:1002100000000020DC0200080000002004000000B4
:10022000D8010008E00200080400002004040000D7
:10023000E8010008A80D2F0EA70E0E0F640FA80FDF
:10024000D90FF60FFF0FF60FD90FA80F640F0E0F7F
:10025000A70E2F0EA80D130D720CC50B100B530A11
:100260009009C908000837077006AD05F0043B0483
:100270008E03ED025802D1015901F2009C00580092
:1002800027000A0000000A00270058009C00F20026
:100290005901D1015802ED028E033B04F004AD0573
:1002A000700637070008C9089009530A100BC50BE0
:1002B000720C130DFF7F8E678E2772D872980080A4
:1002C000729872D88E278E6700003D4BBC79BC793E
:1002D0003D4B0000C3B444864486C3B40000000014
:04000005080000ED02
:00000001FF
