:020000040800F2
:100000000004002001010008250100082701000864
:10001000290100082B0100082D0100080000000044
:100020000000000000000000000000002F01000898
:10003000310100080000000033010008350100080C
:1000400037010008370100083701000837010008B0
:1000500037010008370100083701000837010008A0
:100060003701000837010008370100083701000890
:100070003701000837010008370100083701000880
:100080003701000837010008370100083701000870
:100090003701000837010008370100083701000860
:1000A0003701000837010008370100083701000850
:1000B0003701000837010008370100083701000840
:1000C0003701000837010008370100083701000830
:1000D0003701000837010008370100083701000820
:1000E000370100083701000837010008DFF80CD09D
:1000F00000F02CF8004800478F01000800040020A1
:100100000D488047DFF83400016841F4E0210160C8
:10011000BFF34F8FDFF82800DFF8281001600A488E
:1001200000477047FEE7FEE7FEE7FEE7FEE7FEE773
:10013000FEE7FEE7FEE7FEE72301000824ED00E00E
:100140000CED00E00003FA05ED000008064C074D39
:1001500006E0E06840F0010394E807009847103497
:10016000AC42F6D3FFF7C6FFEC010008FC01000823
:1001700002E008C8121F08C1002AFAD17047704770
:10018000002001E001C1121F002AFBD170470125A8
:100190000026002413E0204600F016F8B04204DDEB
:1001A000204600F011F8064608E0204600F00CF862
:1001B000A84203DA204600F007F80546641C0A2C22
:1001C000E9DB00BFFEE70000064931F910200649CF
:1001D00031F9103002FB02F203FB03F302EB0300E0
:1001E0007047000010020008FC010008240200080B
:1001F000000000200004000080010008FF7F8E67DF
:100200008E2772D872980080729872D88E278E6767
:1002100000003D4BBC79BC793D4B0000C3B4448623
:040220004486C3B499
:04000005080000ED02
:00000001FF
