:020000040800F2
:100000000004002001010008250100082701000864
:10001000290100082B0100082D0100080000000044
:100020000000000000000000000000002F01000898
:10003000310100080000000033010008350100080C
:1000400037010008370100083701000837010008B0
:1000500037010008370100083701000837010008A0
:100060003701000837010008370100083701000890
:100070003701000837010008370100083701000880
:100080003701000837010008370100083701000870
:100090003701000837010008370100083701000860
:1000A0003701000837010008370100083701000850
:1000B0003701000837010008370100083701000840
:1000C0003701000837010008370100083701000830
:1000D0003701000837010008370100083701000820
:1000E000370100083701000837010008DFF80CD09D
:1000F00000F02CF800480047ED0100080004002043
:100100000D488047DFF83400016841F4E0210160C8
:10011000BFF34F8FDFF82800DFF8281001600A488E
:1001200000477047FEE7FEE7FEE7FEE7FEE7FEE773
:10013000FEE7FEE7FEE7FEE72301000824ED00E00E
:100140000CED00E00003FA05ED000008064C074D39
:1001500006E0E06840F0010394E807009847103497
:10016000AC42F6D3FFF7C6FF0002000810020008F9
:10017000F0B44FF000044FF000064FF0000531F9E5
:10018000143032F9167003FB075504F1010404FB27
:1001900000F606F03F06402CF1D12846F0BC70472F
:1001A00070B50446074AFFF7E3FF80FB0056204680
:1001B000054AFFF7DDFFC0FB00563046BDE8704042
:1001C00070470000900200081003000802E008C811
:1001D000121F08C1002AFAD170477047002001E0C1
:1001E00001C1121F002AFBD17047000018240349E7
:1001F0002046FFF7D5FF00BFFEE700001002000811
:10020000900300080000002000040000DC0100084A
:100210006E06BE0B46048209A1092A04CA0B820697
:100220004A06EC0B2F047109CE090204D00BA30679
:100230001A06080C3B044609F909F703B30BD2066A
:10024000FB05000C64041909080A1104840BF50667
:10025000FF05D90B92040609F3093F045E0BF6066D
:100260002206AA0BAA041709C6096704580BD5066B
:1002700052068F0B9D0442099B097204750BA6065A
:100280007106970B74046E098C095804A40B84063C
:10029000FF7F627F8A7D7D7A4276E3706E6AF262CA
:1002A000825A34511D47573CFC302825F9188C0CD4
:1002B000000074F307E7D8DA04CFA9C3E3B8CCAEE3
:1002C0007EA50E9D92951D8FBE89838576829E8028
:1002D00000809E8076828385BE891D8F92950E9DBB
:1002E0007EA5CCAEE3B8A9C304CFD8DA07E774F390
:1002F00000008C0CF9182825FC30573C1D47345160
:10030000825AF2626E6AE37042767D7A8A7D627FFB
:1003100000008C0CF9182825FC30573C1D4734513F
:10032000825AF2626E6AE37042767D7A8A7D627FDB
:10033000FF7F627F8A7D7D7A4276E3706E6AF26229
:10034000825A34511D47573CFC302825F9188C0C33
:10035000000074F307E7D8DA04CFA9C3E3B8CCAE42
:100360007EA50E9D92951D8FBE89838576829E8087
:1003700000809E8076828385BE891D8F92950E9D1A
:100380007EA5CCAEE3B8A9C304CFD8DA07E774F3EF
:04000005080000ED02
:00000001FF
